:100000000C9446000C9465000C9465000C946500FB
:100010000C9465000C9465000C9465000C946500CC
:100020000C9465000C9465000C9465000C946500BC
:100030000C9465000C9465000C9465000C946500AC
:100040000C9465000C9465000C9465000C9465009C
:100050000C9465000C9465000C9465000C9465008C
:100060000C9465000C9465000C9465000C9465007C
:100070000C9465000C9465000C9465000C9465006C
:100080000C9465000C9465000C94650011241FBE4F
:10009000CFEFD0E1DEBFCDBF12E0A0E0B1E0EAE0FB
:1000A000FCE100E00BBF02C007900D92AC37B10736
:1000B000D9F712E0ACE7B2E001C01D92A83BB1074E
:1000C000E1F70E9457010C94030E0C940000806429
:1000D00087B9369A349BFECF24B135B1C901089552
:1000E000EF92FF920F931F9340E050E060E070E0CA
:1000F000E0E0F0E0E12CF12C80E8082F112DD89AF7
:10010000D998C899FECF80E090E0A0E0B0E020E070
:1001100030E0D99A880F991FAA1FBB1FD998C89B96
:1001200003C00196A11DB11D2F5F3F4F283131053E
:1001300081F7D99AD9988E259F25A027B127480FF6
:10014000591F6A1F7B1F3196E032F105C1F69A01F3
:10015000AB0185E056954795379527958A95D1F758
:100160008091B2029091B302892B71F42093AE0278
:100170003093AF024093B0025093B10281E090E01F
:100180009093B3028093B2028091AE029091AF023D
:10019000A091B002B091B10282179307A407B507EE
:1001A00028F020E030E040E050E00CC08091AE024A
:1001B0009091AF02A091B002B091B102281B390B0F
:1001C0004A0B5B0BB901CA011F910F91FF90EF9091
:1001D0000895282F207F25BBA898AA9A25E0922F62
:1001E0009A95F1F7AA9890E034E0880F991F3A9514
:1001F000E1F785BBA898AA9A2A95F1F7AA980895DD
:10020000E0E9F1E03197F1F7282F207F25BBA89A8C
:10021000AA9A25E0922F9A95F1F7AA9890E044E0E7
:10022000880F991F4A95E1F785BBA89AAA9A2A9543
:10023000F1F7AA9808950F931F9384EF91E020E9B6
:1002400031E0F9013197F1F70197D9F788E20E947F
:10025000E90000E41FE1C8010197F1F78CE00E947A
:10026000E900C8010197F1F786E00E94E900C801A2
:100270000197F1F781E00E94E900C8010197F1F7C9
:100280001F910F910895CF93DF93EB018295880F13
:10029000880F807C805C0E94E90003C021960E9448
:1002A000000188818823D1F7DF91CF9108952F92A3
:1002B0003F924F925F926F927F928F929F92AF92F6
:1002C000BF92CF92DF92EF92FF920F931F93CF9343
:1002D000DF9382E08ABB8FEF87BB84BB11BA82B900
:1002E00018BA15BA82BB83B917B887EC86B982EF02
:1002F0008FBD8BE18EBD88EE93E097BD86BD1BBCA4
:100300001ABC19BC18BC0E941B018091A8029091D4
:10031000A90201969093A9028093A8020B97B4F0CA
:100320000E94700020ED37E040E050E00E94D30AC8
:10033000C901DA018093AA029093AB02A093AC02A8
:10034000B093AD021092A9021092A8028091AA0265
:100350009091AB02A091AC02B091AD028997A1053A
:10036000B10548F021E030E03093B7022093B602A7
:100370001898199A06C01092B7021092B602189AED
:10038000199880E00E946700AA2797FDA095BA2FD0
:10039000BC01CD010E942C089B01AC0160E070E51E
:1003A00083EC97E40E94F0066093840270938502C8
:1003B0008093860290938702E0907C02F0907D0209
:1003C00000917E0210917F02E0928002F092810201
:1003D00000938202109383022AE939E949E95EE336
:1003E000209388023093890240938A0250938B02B3
:1003F0000E94F6055B016C01C801B70123E333E3FA
:1004000043E35FE30E94F6059B01AC01C601B50121
:100410000E94C9053B014C0160937C0270937D02F0
:1004200080937E0290937F0220E030E046E953E41F
:100430000E94FC0788233CF441E050E05093B50251
:100440004093B40228C0C401B30120E030E04AEF79
:1004500053E40E94FC0788233CF482E090E09093F0
:10046000B5028093B40217C0C401B30120E030E0AC
:1004700045E254E40E94FC0788233CF4A3E0B0E08A
:10048000B093B502A093B40206C0C4E0D0E0D0930C
:10049000B502C093B4028091B6029091B702892B45
:1004A00001F5849906C021E030E030937201209379
:1004B0007101859906C042E050E05093720140936B
:1004C0007101869906C083E090E090937201809359
:1004D0007101879906C0A4E0B0E0B0937201A093C7
:1004E0007101C0917101D0917201C130D10529F41F
:1004F00020E030E04AE753E40FC0C230D10529F4D0
:1005000080E090E8A8EEB3E417C0C330D10569F4E9
:1005100020E030E848E154E420938C0230938D02CF
:1005200040938E0250938F020FC0C430D10561F406
:1005300080E090E8ABE3B4E480938C0290938D026A
:10054000A0938E02B0938F02E0909002F0909102FF
:100550000091920210919302E0929402F09295021F
:10056000009396021093970260918C0270918D0215
:1005700080918E0290918F02A40193010E949805B0
:100580005B016C01609390027093910280939202E0
:1005900090939302A80197010E9498051B012C01DA
:1005A000609398027093990280939A0290939B02B1
:1005B000C601B50120E030E040E050E00E94FC07B9
:1005C0008823CCF420E030E040E050E420939C020B
:1005D00030939D0240939E0250939F0280E090E0F2
:1005E000A8ECB1E48093A0029093A102A093A20290
:1005F000B093A3022EC023E333E343E350E42093FC
:100600009C0230939D0240939E0250939F0280E093
:1006100090E0A0E0B1E48093A0029093A102A093A7
:10062000A202B093A302C401B30120E030E048E489
:1006300053E40E94FC07882364F420E030E040EAA1
:1006400051E420939C0230939D0240939E0250936C
:100650009F02C601B50120919C0230919D024091FC
:100660009E0250919F020E94F6057B018C01C201FF
:10067000B1012091A0023091A1024091A2025091BB
:10068000A3020E94F6059B01AC01C801B7010E94BC
:10069000C9056093A4027093A5028093A60290936B
:1006A000A7020F2EF0E0EF2EF0E0FF2EF8E40F2F60
:1006B000F3E41F2FF02DE0926D01F0926E01009394
:1006C0006F0110937001A80197010E949C071816F2
:1006D00044F4E092A402F092A5020093A6021093C3
:1006E000A7026091A4027091A5028091A602909148
:1006F000A70220E030E048E453EC0E94FC07882386
:1007000064F480E090E0A8E4B3EC8093A4029093BA
:10071000A502A093A602B093A702E090A402F090D5
:10072000A5020091A6021091A702C801B70120E01E
:1007300030E040E050E00E94CC0788234CF01BBC26
:100740001ABCC801B7010E94200479BD68BD11C060
:10075000C801B70190586093A4027093A5028093DA
:10076000A6029093A7020E9420047BBD6ABD19BC1B
:1007700018BC4DB75EB7485050400FB6F8945EBFF6
:100780000FBE4DBFEDB7FEB7319625E431E0ADB7F2
:10079000BEB712963C932E93119740E051E05383DD
:1007A0004283D583C4838091B4029091B50297832C
:1007B00086830E942C0B8DB79EB708960FB6F894CF
:1007C0009EBF0FBE8DBF81E065E471E00E944301D2
:1007D0008091AA029091AB02A091AC02B091AD02BF
:1007E000CDB7DEB72A970FB6F894DEBF0FBECDBFE8
:1007F000EDB7FEB7319625E431E03A83298344E131
:1008000051E053834283C8E2D0E0D583C48386831A
:100810009783A087B1870E942C0B2DB73EB7265F28
:100820003F4F0FB6F8943EBF0FBE2DBF82E065E488
:1008300071E00E94430180E49CE90197F1F765CDE6
:10084000EF92FF920F931F937B018C0120E030E029
:1008500040E05FE40E94CC0788238CF0C801B70118
:1008600020E030E040E05FE40E9498050E948A08A2
:100870009B01AC01205030404040504806C0C801A8
:10088000B7010E948A089B01AC01B901CA011F91FE
:100890000F91FF90EF900895A0E0B0E0E2E5F4E062
:1008A0000C94F50ADC012B01FA019C91923008F4BA
:1008B00039C1EB018881823008F433C1943069F486
:1008C000843009F02FC111969C9111978981981756
:1008D00009F428C1A3E7B1E025C1843009F421C19E
:1008E0008230A9F4923009F01DC19A01AD0188E06F
:1008F000EA010990AE01E90109929E018150C1F718
:10090000E201898111969C918923818308C19230EB
:1009100009F407C112962D903C901397EB018A8140
:100920009B811496AD90BD90CD90DC901797EC8094
:10093000FD800E811F819101281B390BB90137FF02
:1009400004C066277727621B730B603271050CF0B9
:1009500061C0121613066CF537014801062E04C05B
:1009600096948794779467940A94D2F721E030E0C4
:1009700040E050E004C0220F331F441F551F6A950A
:10098000D2F721503040404050402E213F2140239B
:100990005123211531054105510521F021E030E0B9
:1009A00040E050E079018A01E628F7280829192952
:1009B0003CC0232BD1F1260E371E35014601062EF1
:1009C00004C096948794779467940A94D2F721E0B0
:1009D00030E040E050E004C0220F331F441F551F99
:1009E0006A95D2F721503040404050402A213B21A7
:1009F0004C215D21211531054105510521F021E0F2
:100A000030E040E050E059016A01A628B728C82824
:100A1000D9280BC0821593052CF01C01AA24BB24F5
:100A2000650103C0EE24FF24870111969C91D20139
:100A300011968C91981709F445C0992339F0A801B3
:100A400097012A193B094C095D0906C0A6019501C9
:100A50002E193F09400B510B57FD08C011823382FC
:100A6000228224833583468357831DC081E081839E
:100A70003382228288279927DC01821B930BA40BE7
:100A8000B50B84839583A683B7830DC0220F331FD4
:100A9000441F551F24833583468357838281938166
:100AA0000197938382832481358146815781DA01BE
:100AB000C9010197A109B1098F5F9F4FAF4FBF4394
:100AC00028F30BC0918333822282EA0CFB1C0C1D9D
:100AD0001D1DE482F5820683178383E080832481D1
:100AE00035814681578157FF1AC0C901AA2797FD52
:100AF000A095BA2F81709070A070B07056954795F0
:100B000037952795822B932BA42BB52B8483958324
:100B1000A683B78382819381019693838283DF01C9
:100B200001C0D201CD01CDB7DEB7E2E10C94110BCB
:100B3000A0E2B0E0EEE9F5E00C94010B69837A8362
:100B40008B839C832D833E834F835887E9E0EE2E71
:100B5000F12CEC0EFD1ECE010196B7010E94020A97
:100B60008E010F5E1F4FCE010596B8010E94020A4A
:100B70008A8991E089278A8BC701B801AE01475E57
:100B80005F4F0E944C040E942D09A096E6E00C9451
:100B90001D0BA0E2B0E0EFECF5E00C94010B6983D3
:100BA0007A838B839C832D833E834F835887F9E020
:100BB000EF2EF12CEC0EFD1ECE010196B7010E9426
:100BC000020A8E010F5E1F4FCE010596B8010E94EA
:100BD000020AC701B801AE01475E5F4F0E944C0494
:100BE0000E942D09A096E6E00C941D0BA0E2B0E057
:100BF000ECEFF5E00C94F50A69837A838B839C8390
:100C00002D833E834F835887CE010196BE01675FD7
:100C10007F4F0E94020ACE010596BE016F5E7F4F94
:100C20000E94020A9985923088F089898230C8F042
:100C3000943019F4823051F404C0843029F4923095
:100C400081F483E791E0C6C0923049F420E09A85B0
:100C50008A89981321E02A87CE010996BBC0823089
:100C600049F420E09A858A89981321E02A8BCE01E5
:100C70004196B0C02D843E844F8458886D887E880C
:100C80008F88988CEE24FF248701AA24BB24650159
:100C900040E050E060E070E0E0E0F0E0C101817031
:100CA0009070892BE9F0E60CF71C081D191D9A01BC
:100CB000AB012A0D3B1D4C1D5D1D80E090E0A0E0C6
:100CC000B0E0E614F7040805190520F481E090E08F
:100CD000A0E0B0E0BA01A901480F591F6A1F7B1FAD
:100CE000AA0CBB1CCC1CDD1C97FE08C081E090E068
:100CF000A0E0B0E0A82AB92ACA2ADB2A3196E0325D
:100D0000F10549F0660C771C881C991C5694479491
:100D100037942794C3CFFA85EA892B893C898B8540
:100D20009C85280F391F2E5F3F4F17C0CA01817065
:100D30009070892B61F016950795F794E79480E001
:100D400090E0A0E0B0E8E82AF92A0A2B1B2B769560
:100D50006795579547952F5F3F4F77FDE7CF0CC0BD
:100D6000440F551F661F771F17FD4160EE0CFF1CD7
:100D7000001F111F21503040403090E0590790E093
:100D8000690790E4790760F32B8F3C8FDB01CA0180
:100D90008F779070A070B07080349105A105B10577
:100DA00061F447FD0AC0E114F1040105110529F0C1
:100DB000405C5F4F6F4F7F4F40781A8EFE1711F0E7
:100DC00081E08A8F4D8F5E8F6F8F78A383E0898F4C
:100DD000CE0149960E942D09A096E2E10C94110BD8
:100DE000A8E1B0E0E6EFF6E00C94FD0A69837A83AF
:100DF0008B839C832D833E834F835887B9E0EB2EF2
:100E0000F12CEC0EFD1ECE010196B7010E94020AE4
:100E10008E010F5E1F4FCE010596B8010E94020A97
:100E20002985223008F47EC03989323010F4B801A7
:100E30007CC08A859A8989278A87243011F02230DC
:100E400031F4231709F06EC063E771E06EC03430EF
:100E500039F41D861E861F86188A1C861B8604C0D0
:100E6000323021F484E08987B7015FC02B853C854F
:100E70008B899C89281B390B3C872B87ED84FE844A
:100E80000F851889AD88BE88CF88D88CEA14FB04FA
:100E90000C051D0540F4EE0CFF1C001F111F215016
:100EA00030403C872B8720E030E040E050E080E09D
:100EB00090E0A0E0B0E460E070E0EA14FB040C0510
:100EC0001D0540F0282B392B4A2B5B2BEA18FB0819
:100ED0000C091D09B695A79597958795EE0CFF1CF3
:100EE000001F111F6F5F7F4F6F31710531F7DA01FE
:100EF000C9018F779070A070B07080349105A10502
:100F0000B10561F427FD0AC0E114F10401051105E2
:100F100029F0205C3F4F4F4F5F4F20782D873E8751
:100F20004F87588BBE01675F7F4FCB010E942D0911
:100F30006896EAE00C94190BA8E1B0E0E2EAF7E069
:100F40000C94010B69837A838B839C832D833E836E
:100F50004F83588789E0E82EF12CEC0EFD1ECE0160
:100F60000196B7010E94020A8E010F5E1F4FCE014B
:100F70000596B8010E94020A8985823040F089896D
:100F8000823028F0C701B8010E947A0A01C08FEFB1
:100F90006896E6E00C941D0BA8E1B0E0E2EDF7E006
:100FA0000C94010B69837A838B839C832D833E830E
:100FB0004F83588789E0E82EF12CEC0EFD1ECE0100
:100FC0000196B7010E94020A8E010F5E1F4FCE01EB
:100FD0000596B8010E94020A8985823040F089890D
:100FE000823028F0C701B8010E947A0A01C08FEF51
:100FF0006896E6E00C941D0BA8E1B0E0E2E0F8E0B2
:101000000C94010B69837A838B839C832D833E83AD
:101010004F83588789E0E82EF12CEC0EFD1ECE019F
:101020000196B7010E94020A8E010F5E1F4FCE018A
:101030000596B8010E94020A8985823040F08989AC
:10104000823028F0C701B8010E947A0A01C081E00D
:101050006896E6E00C941D0BA8E0B0E0E2E3F8E04F
:101060000C94FE0A9B01AC0183E08983DA01C9017B
:101070008827B7FD83959927AA27BB27B82E211566
:1010800031054105510519F482E089833AC088236E
:10109000A9F0203080E0380780E0480780E8580752
:1010A00029F460E070E080E09FEC30C0EE24FF2483
:1010B0008701E21AF30A040B150B02C079018A01B9
:1010C0008EE1C82ED12CDC82CB82ED82FE820F8392
:1010D0001887C801B7010E94DE0801971816190683
:1010E00084F4082E04C0EE0CFF1C001F111F0A948C
:1010F000D2F7ED82FE820F831887C81AD90ADC82E4
:10110000CB82BA82CE0101960E942D092896E9E091
:101110000C941A0BACE0B0E0E0E9F8E00C94050B9D
:1011200069837A838B839C83CE010196BE016B5FBA
:101130007F4F0E94020A8D81823061F1823050F12E
:10114000843021F48E81882351F12EC02F8138857F
:1011500037FD20C06E812F3131051CF06623F9F078
:1011600023C08EE190E0821B930B29853A854B8545
:101170005C8504C056954795379527958A95D2F793
:101180006623B1F050954095309521953F4F4F4FD4
:101190005F4F0EC020E030E040E050E009C02FEF8C
:1011A0003FEF4FEF5FE704C020E030E040E050E861
:1011B000B901CA012C96E2E00C94210BEF92FF9248
:1011C0000F931F937B018C0180E0E81680E0F80606
:1011D00081E0080780E0180788F48FEFE816F10433
:1011E0000105110531F028F088E090E0A0E0B0E0C2
:1011F00017C080E090E0A0E0B0E012C080E0E81608
:1012000080E0F80680E0080781E0180728F088E110
:1012100090E0A0E0B0E004C080E190E0A0E0B0E0A9
:1012200020E230E040E050E0281B390B4A0B5B0B1A
:1012300004C016950795F794E7948A95D2F7F701BD
:10124000E558FE4F8081281B310941095109C90128
:101250001F910F91FF90EF900895DF92EF92FF9210
:101260000F931F93FC01E480F58006811781D180E4
:101270008081823048F480E090E0A0E1B0E0E82A8C
:10128000F92A0A2B1B2BA5C0843009F49FC0823099
:1012900021F4EE24FF24870105C0E114F1040105C7
:1012A000110519F4E0E0F0E096C0628173819FEFD0
:1012B000623879070CF05BC022E83FEF261B370B42
:1012C0002A3131052CF020E030E040E050E02AC027
:1012D000B801A701022E04C07695679557954795EA
:1012E0000A94D2F781E090E0A0E0B0E004C0880F5B
:1012F000991FAA1FBB1F2A95D2F70197A109B1090F
:101300008E219F21A023B1230097A105B10521F0D3
:1013100081E090E0A0E0B0E09A01AB01282B392BEE
:101320004A2B5B2BDA01C9018F779070A070B070E7
:1013300080349105A105B10539F427FF09C0205C6F
:101340003F4F4F4F5F4F04C0215C3F4F4F4F5F4FA8
:10135000E0E0F0E02030A0E03A07A0E04A07A0E497
:101360005A0710F0E1E0F0E079018A0127C0603807
:10137000710564F5FB01E158FF4FD801C7018F7774
:101380009070A070B07080349105A105B10539F45A
:10139000E7FE0DC080E490E0A0E0B0E004C08FE381
:1013A00090E0A0E0B0E0E80EF91E0A1F1B1F17FF37
:1013B00005C016950795F794E794319687E0169542
:1013C0000795F794E7948A95D1F705C0EE24FF249A
:1013D0008701EFEFF0E06E2F679566276795902FF6
:1013E0009F77D794DD24D7948E2F8695492F462B4F
:1013F000582F5D29B701CA011F910F91FF90EF90FF
:10140000DF900895FC01DB01408151812281622F30
:101410006F7770E0221F2227221F9381892F880F68
:10142000822B282F30E0991F9927991F11969C93A2
:10143000119721153105A9F5411551056105710572
:1014400011F482E037C082E89FEF13969C938E934D
:1014500012979A01AB0167E0220F331F441F551FFB
:101460006A95D1F783E08C930DC0220F331F441F80
:10147000551F12968D919C911397019713969C93EB
:101480008E931297203080E0380780E0480780E490
:10149000580758F314962D933D934D935C931797EB
:1014A00008952F3F310579F4411551056105710506
:1014B00019F484E08C93089564FF03C081E08C9359
:1014C00012C01C9210C02F57304013963C932E939D
:1014D000129783E08C9387E0440F551F661F771F98
:1014E0008A95D1F7706414964D935D936D937C93B8
:1014F000179708951F93DC01FB019C91923008F42B
:1015000047C08081823008F443C0943051F4119672
:101510001C91843099F58181682F70E0611B7109FD
:101520003FC0843021F0923031F48230B9F18181B2
:10153000882389F12DC011961C9111978230F1F00A
:1015400081811817D9F412962D913C9113978281BD
:1015500093818217930794F028173907BCF01496EB
:101560008D919D910D90BC91A02D24813581468156
:101570005781281739074A075B0718F4112341F0F0
:101580000AC082179307A407B50740F4112319F086
:1015900061E070E005C06FEF7FEF02C060E070E0D7
:1015A000CB011F910895A1E21A2EAA1BBB1BFD01BE
:1015B0000DC0AA1FBB1FEE1FFF1FA217B307E40732
:1015C000F50720F0A21BB30BE40BF50B661F771F8A
:1015D000881F991F1A9469F760957095809590956A
:1015E0009B01AC01BD01CF0108952F923F924F9214
:1015F0005F926F927F928F929F92AF92BF92CF92A3
:10160000DF92EF92FF920F931F93CF93DF93CDB7AB
:10161000DEB7CA1BDB0B0FB6F894DEBF0FBECDBF23
:1016200009942A88398848885F846E847D848C84F4
:101630009B84AA84B984C884DF80EE80FD800C81FD
:101640001B81AA81B981CE0FD11D0FB6F894DEBFE0
:101650000FBECDBFED0108950F931F93DF93CF937E
:10166000CDB7DEB72E970FB6F894DEBF0FBECDBF55
:101670000D891E8986E08C831A8309838FEF9FE78B
:101680009E838D839E01275E3F4FCE0101966F8919
:10169000788DA9010E945D0B2F813885020F131FE1
:1016A000F80110822E960FB6F894DEBF0FBECDBFA4
:1016B000CF91DF911F910F9108952F923F924F92FA
:1016C0005F926F927F928F929F92AF92BF92CF92D2
:1016D000DF92EF92FF920F931F93DF93CF93CDB7DB
:1016E000DEB72B970FB6F894DEBF0FBECDBF3C011F
:1016F0002B015A01FC0117821682838181FD03C0F0
:101700006FEF7FEFC6C19AE0892E1E010894211C5D
:10171000311CF3012381F20123FD859123FF819187
:101720002F01882309F4B2C1853239F423FD859154
:1017300023FF81912F01853229F490E0B3010E94AB
:10174000790DE7CF982FFF24EE249924FFE1FF15B0
:10175000D0F09B3269F09C3228F4903259F09332E9
:1017600091F40EC09D3249F0903369F441E024C0F9
:1017700052E0F52A84E0F82A28C098E0F92A25C02A
:10178000E0E1FE2A22C0F7FC29C0892F80538A306D
:1017900070F4F6FE05C0989C902C1124980E15C08C
:1017A000E89CE02C1124E80EF0E2FF2A0EC09E32E5
:1017B00029F4F6FC6BC140E4F42A07C09C3619F406
:1017C00050E8F52A02C0983649F4F20123FD9591BC
:1017D00023FF91912F01992309F0B8CF892F8554C8
:1017E000833018F08052833038F444E050E0A40E87
:1017F000B51E5FE359830FC0933631F0933779F00C
:10180000933509F056C020C0F5018081898342E0FC
:1018100050E0A40EB51E610101E010E012C0F50118
:10182000C080D180F6FC03C06FEF7FEF02C0692D4E
:1018300070E042E050E0A40EB51EC6010E946E0D9D
:101840008C015FE7F52214C0F501C080D180F6FC61
:1018500003C06FEF7FEF02C0692D70E042E050E0FF
:10186000A40EB51EC6010E94630D8C0150E8F52A36
:10187000F3FE07C01AC080E290E0B3010E94790D28
:10188000EA948E2D90E008171907A8F30EC0F60110
:10189000F7FC8591F7FE81916F0190E0B3010E9402
:1018A000790DE110EA94015010400115110579F706
:1018B000EAC0943611F0993669F5F7FE08C0F501D3
:1018C000208131814281538184E090E00AC0F5019A
:1018D000808191819C01442737FD4095542F82E0FF
:1018E00090E0A80EB91E9FE6F92257FF09C0509557
:1018F0004095309521953F4F4F4F5F4FE0E8FE2ACE
:10190000CA01B901A1012AE030E00E94A50DD82E3C
:10191000D21840C0953729F41F2D1F7E2AE030E0F1
:101920001DC01F2D197F9F3661F0903720F4983528
:1019300009F0ACC00FC0903739F0983709F0A6C055
:1019400004C028E030E00AC0106114FD146020E1FA
:1019500030E004C014FD166020E132E017FF08C03B
:10196000F501608171818281938144E050E008C07B
:10197000F50180819181BC0180E090E042E050E07F
:10198000A40EB51EA1010E94A50DD82ED2188FE776
:10199000F82EF122F6FE0BC05EEFF522D91438F4D2
:1019A000F4FE07C0F2FC05C08FEEF82202C01D2D28
:1019B00001C0192DF4FE0DC0FE01ED0DF11D808159
:1019C000803319F499EEF92208C01F5FF2FE05C0BA
:1019D00003C08F2D867809F01F5F0F2DF3FC14C014
:1019E000F0FE0FC01E1510F09D2C0BC09D2C9E0C00
:1019F000911A1E2D06C080E290E0B3010E94790D7D
:101A00001F5F1E15C0F304C01E1510F4E11A01C0BB
:101A1000EE2404FF0FC080E390E0B3010E94790D33
:101A200002FF1DC001FD03C088E790E00EC088E5FD
:101A300090E00BC0802F867891F001FF02C08BE20E
:101A400001C080E2F7FC8DE290E0B3010E94790DC5
:101A500006C080E390E0B3010E94790D9A94D914F6
:101A6000C0F3DA94F101ED0DF11D808190E0B30136
:101A70000E94790DDD20A9F706C080E290E0B30155
:101A80000E94790DEA94EE20C1F743CEF3016681FE
:101A90007781CB012B960FB6F894DEBF0FBECDBF7A
:101AA000CF91DF911F910F91FF90EF90DF90CF903A
:101AB000BF90AF909F908F907F906F905F904F906E
:101AC0003F902F900895FC010590615070400110E7
:101AD000D8F7809590958E0F9F1F0895FC01615057
:101AE000704001900110D8F7809590958E0F9F1F40
:101AF00008950F931F93CF93DF938C01EB018B819C
:101B000081FF1BC082FF0DC02E813F818C819D8192
:101B10002817390764F4E881F9810193F983E88390
:101B200006C0E885F985802F0995892B31F48E81CF
:101B30009F8101969F838E8302C00FEF1FEFC80124
:101B4000DF91CF911F910F910895FA01AA272830B4
:101B500051F1203181F1E8946F936E7F6E5F7F4F7A
:101B60008F4F9F4FAF4FB1E03ED0B4E03CD0670FF6
:101B7000781F891F9A1FA11D680F791F8A1F911D49
:101B8000A11D6A0F711D811D911DA11D20D009F499
:101B900068943F912AE0269F11243019305D3193DB
:101BA000DEF6CF010895462F4770405D4193B3E0C4
:101BB0000FD0C9F7F6CF462F4F70405D4A3318F06B
:101BC000495D31FD4052419302D0A9F7EACFB4E01C
:101BD000A6959795879577956795BA95C9F70097D4
:101BE0006105710508959B01AC010A2E0694579575
:101BF000479537952795BA95C9F7620F731F841FCC
:0A1C0000951FA01D0895F894FFCF72
:101C0A005B2025316446205D206E6F773A202025BF
:101C1A00644620005B253364675D206E6F773A2047
:101C2A00253364670068656C6C00000000000000E2
:101C3A000000000000476F6F64204A6F62210000B5
:101C4A00000000000020000000000000000000006A
:101C5A00000000000000000000000000000000007A
:101C6A000000000000000000000000000000007AF0
:101C7A00440100000000000000000000010202030D
:101C8A000303030404040404040404050505050508
:101C9A0005050505050505050505050606060606E5
:101CAA0006060606060606060606060606060606CA
:101CBA0006060606060606060606060707070707B5
:101CCA00070707070707070707070707070707079A
:101CDA00070707070707070707070707070707078A
:101CEA00070707070707070707070707070707077A
:101CFA000707070707070707070707080808080865
:101D0A000808080808080808080808080808080849
:101D1A000808080808080808080808080808080839
:101D2A000808080808080808080808080808080829
:101D3A000808080808080808080808080808080819
:101D4A000808080808080808080808080808080809
:101D5A0008080808080808080808080808080808F9
:101D6A0008080808080808080808080808080808E9
:0C1D7A0008080808080808080808080005
:00000001FF
